{
  "_format": "hh-sol-artifact-1",
  "contractName": "VotingFactory",
  "sourceName": "contracts/Voting.sol",
  "abi": [
    {
      "anonymous": false,
      "inputs": [
        {
          "indexed": false,
          "internalType": "address",
          "name": "CampaignAddress",
          "type": "address"
        },
        {
          "indexed": false,
          "internalType": "string",
          "name": "_campaign_name",
          "type": "string"
        }
      ],
      "name": "VotingCreated",
      "type": "event"
    },
    {
      "inputs": [
        {
          "internalType": "address",
          "name": "_owner",
          "type": "address"
        },
        {
          "internalType": "string",
          "name": "_campaign_name",
          "type": "string"
        },
        {
          "internalType": "uint256",
          "name": "_timeperiod",
          "type": "uint256"
        },
        {
          "internalType": "uint256",
          "name": "_candidatesCount",
          "type": "uint256"
        },
        {
          "internalType": "string[]",
          "name": "_names",
          "type": "string[]"
        }
      ],
      "name": "createVoting",
      "outputs": [],
      "stateMutability": "nonpayable",
      "type": "function"
    },
    {
      "inputs": [
        {
          "internalType": "uint256",
          "name": "",
          "type": "uint256"
        }
      ],
      "name": "deployedVotings",
      "outputs": [
        {
          "internalType": "address",
          "name": "",
          "type": "address"
        }
      ],
      "stateMutability": "view",
      "type": "function"
    }
  ],
  "bytecode": "0x608060405234801561001057600080fd5b50611d13806100206000396000f3fe60806040523480156200001157600080fd5b50600436106200003a5760003560e01c8063298f37ab146200003f57806378ee09821462000075575b600080fd5b6200005d60048036038101906200005791906200021d565b62000095565b6040516200006c919062000294565b60405180910390f35b6200009360048036038101906200008d919062000540565b620000d5565b005b60008181548110620000a657600080fd5b906000526020600020016000915054906101000a900473ffffffffffffffffffffffffffffffffffffffff1681565b60008585858585604051620000ea90620001c0565b620000fa959493929190620007c2565b604051809103906000f08015801562000117573d6000803e3d6000fd5b5090506000819080600181540180825580915050600190039060005260206000200160009091909190916101000a81548173ffffffffffffffffffffffffffffffffffffffff021916908373ffffffffffffffffffffffffffffffffffffffff1602179055507f4603bf5201e04565fcdd92bb71fcbabcfd5e75f0bf2f1b8a732f660e56acb3298186604051620001b09291906200082d565b60405180910390a1505050505050565b61147c806200086283390190565b6000604051905090565b600080fd5b600080fd5b6000819050919050565b620001f781620001e2565b81146200020357600080fd5b50565b6000813590506200021781620001ec565b92915050565b600060208284031215620002365762000235620001d8565b5b6000620002468482850162000206565b91505092915050565b600073ffffffffffffffffffffffffffffffffffffffff82169050919050565b60006200027c826200024f565b9050919050565b6200028e816200026f565b82525050565b6000602082019050620002ab600083018462000283565b92915050565b620002bc816200026f565b8114620002c857600080fd5b50565b600081359050620002dc81620002b1565b92915050565b600080fd5b600080fd5b6000601f19601f8301169050919050565b7f4e487b7100000000000000000000000000000000000000000000000000000000600052604160045260246000fd5b6200033782620002ec565b810181811067ffffffffffffffff82111715620003595762000358620002fd565b5b80604052505050565b60006200036e620001ce565b90506200037c82826200032c565b919050565b600067ffffffffffffffff8211156200039f576200039e620002fd565b5b620003aa82620002ec565b9050602081019050919050565b82818337600083830152505050565b6000620003dd620003d78462000381565b62000362565b905082815260208101848484011115620003fc57620003fb620002e7565b5b62000409848285620003b7565b509392505050565b600082601f830112620004295762000428620002e2565b5b81356200043b848260208601620003c6565b91505092915050565b600067ffffffffffffffff821115620004625762000461620002fd565b5b602082029050602081019050919050565b600080fd5b60006200048f620004898462000444565b62000362565b90508083825260208201905060208402830185811115620004b557620004b462000473565b5b835b818110156200050357803567ffffffffffffffff811115620004de57620004dd620002e2565b5b808601620004ed898262000411565b85526020850194505050602081019050620004b7565b5050509392505050565b600082601f830112620005255762000524620002e2565b5b81356200053784826020860162000478565b91505092915050565b600080600080600060a086880312156200055f576200055e620001d8565b5b60006200056f88828901620002cb565b955050602086013567ffffffffffffffff811115620005935762000592620001dd565b5b620005a18882890162000411565b9450506040620005b48882890162000206565b9350506060620005c78882890162000206565b925050608086013567ffffffffffffffff811115620005eb57620005ea620001dd565b5b620005f9888289016200050d565b9150509295509295909350565b600081519050919050565b600082825260208201905092915050565b60005b838110156200064257808201518184015260208101905062000625565b60008484015250505050565b60006200065b8262000606565b62000667818562000611565b93506200067981856020860162000622565b6200068481620002ec565b840191505092915050565b6200069a81620001e2565b82525050565b600081519050919050565b600082825260208201905092915050565b6000819050602082019050919050565b600082825260208201905092915050565b6000620006ea8262000606565b620006f68185620006cc565b93506200070881856020860162000622565b6200071381620002ec565b840191505092915050565b60006200072c8383620006dd565b905092915050565b6000602082019050919050565b60006200074e82620006a0565b6200075a8185620006ab565b9350836020820285016200076e85620006bc565b8060005b85811015620007b057848403895281516200078e85826200071e565b94506200079b8362000734565b925060208a0199505060018101905062000772565b50829750879550505050505092915050565b600060a082019050620007d9600083018862000283565b8181036020830152620007ed81876200064e565b9050620007fe60408301866200068f565b6200080d60608301856200068f565b818103608083015262000821818462000741565b90509695505050505050565b600060408201905062000844600083018562000283565b81810360208301526200085881846200064e565b9050939250505056fe60806040523480156200001157600080fd5b506040516200147c3803806200147c83398181016040528101906200003791906200048f565b846000806101000a81548173ffffffffffffffffffffffffffffffffffffffff021916908373ffffffffffffffffffffffffffffffffffffffff160217905550836001908162000088919062000796565b508242620000979190620008ac565b600281905550816003819055506000600190505b60035481116200015457604051806060016040528082815260200183600184620000d69190620008e7565b81518110620000ea57620000e962000922565b5b6020026020010151815260200160008152506004600083815260200190815260200160002060008201518160000155602082015181600101908162000130919062000796565b506040820151816002015590505080806200014b9062000951565b915050620000ab565b5050505050506200099e565b6000604051905090565b600080fd5b600080fd5b600073ffffffffffffffffffffffffffffffffffffffff82169050919050565b6000620001a18262000174565b9050919050565b620001b38162000194565b8114620001bf57600080fd5b50565b600081519050620001d381620001a8565b92915050565b600080fd5b600080fd5b6000601f19601f8301169050919050565b7f4e487b7100000000000000000000000000000000000000000000000000000000600052604160045260246000fd5b6200022e82620001e3565b810181811067ffffffffffffffff8211171562000250576200024f620001f4565b5b80604052505050565b60006200026562000160565b905062000273828262000223565b919050565b600067ffffffffffffffff821115620002965762000295620001f4565b5b620002a182620001e3565b9050602081019050919050565b60005b83811015620002ce578082015181840152602081019050620002b1565b60008484015250505050565b6000620002f1620002eb8462000278565b62000259565b90508281526020810184848401111562000310576200030f620001de565b5b6200031d848285620002ae565b509392505050565b600082601f8301126200033d576200033c620001d9565b5b81516200034f848260208601620002da565b91505092915050565b6000819050919050565b6200036d8162000358565b81146200037957600080fd5b50565b6000815190506200038d8162000362565b92915050565b600067ffffffffffffffff821115620003b157620003b0620001f4565b5b602082029050602081019050919050565b600080fd5b6000620003de620003d88462000393565b62000259565b90508083825260208201905060208402830185811115620004045762000403620003c2565b5b835b818110156200045257805167ffffffffffffffff8111156200042d576200042c620001d9565b5b8086016200043c898262000325565b8552602085019450505060208101905062000406565b5050509392505050565b600082601f830112620004745762000473620001d9565b5b815162000486848260208601620003c7565b91505092915050565b600080600080600060a08688031215620004ae57620004ad6200016a565b5b6000620004be88828901620001c2565b955050602086015167ffffffffffffffff811115620004e257620004e16200016f565b5b620004f08882890162000325565b945050604062000503888289016200037c565b935050606062000516888289016200037c565b925050608086015167ffffffffffffffff8111156200053a57620005396200016f565b5b62000548888289016200045c565b9150509295509295909350565b600081519050919050565b7f4e487b7100000000000000000000000000000000000000000000000000000000600052602260045260246000fd5b60006002820490506001821680620005a857607f821691505b602082108103620005be57620005bd62000560565b5b50919050565b60008190508160005260206000209050919050565b60006020601f8301049050919050565b600082821b905092915050565b600060088302620006287fffffffffffffffffffffffffffffffffffffffffffffffffffffffffffffffff82620005e9565b620006348683620005e9565b95508019841693508086168417925050509392505050565b6000819050919050565b600062000677620006716200066b8462000358565b6200064c565b62000358565b9050919050565b6000819050919050565b620006938362000656565b620006ab620006a2826200067e565b848454620005f6565b825550505050565b600090565b620006c2620006b3565b620006cf81848462000688565b505050565b5b81811015620006f757620006eb600082620006b8565b600181019050620006d5565b5050565b601f82111562000746576200071081620005c4565b6200071b84620005d9565b810160208510156200072b578190505b620007436200073a85620005d9565b830182620006d4565b50505b505050565b600082821c905092915050565b60006200076b600019846008026200074b565b1980831691505092915050565b600062000786838362000758565b9150826002028217905092915050565b620007a18262000555565b67ffffffffffffffff811115620007bd57620007bc620001f4565b5b620007c982546200058f565b620007d6828285620006fb565b600060209050601f8311600181146200080e5760008415620007f9578287015190505b62000805858262000778565b86555062000875565b601f1984166200081e86620005c4565b60005b82811015620008485784890151825560018201915060208501945060208101905062000821565b8683101562000868578489015162000864601f89168262000758565b8355505b6001600288020188555050505b505050505050565b7f4e487b7100000000000000000000000000000000000000000000000000000000600052601160045260246000fd5b6000620008b98262000358565b9150620008c68362000358565b9250828201905080821115620008e157620008e06200087d565b5b92915050565b6000620008f48262000358565b9150620009018362000358565b92508282039050818111156200091c576200091b6200087d565b5b92915050565b7f4e487b7100000000000000000000000000000000000000000000000000000000600052603260045260246000fd5b60006200095e8262000358565b91507fffffffffffffffffffffffffffffffffffffffffffffffffffffffffffffffff82036200099357620009926200087d565b5b600182019050919050565b610ace80620009ae6000396000f3fe608060405234801561001057600080fd5b50600436106100625760003560e01c80630121b93f146100675780632d35a8a21461008357806333360978146100a15780633477ee2e146100bf57806385e8e7a7146100f15780638e7ea5b21461010f575b600080fd5b610081600480360381019061007c9190610638565b61012d565b005b61008b610364565b6040516100989190610674565b60405180910390f35b6100a961036a565b6040516100b69190610674565b60405180910390f35b6100d960048036038101906100d49190610638565b610370565b6040516100e89392919061071f565b60405180910390f35b6100f9610422565b604051610106919061075d565b60405180910390f35b6101176104b0565b604051610124919061075d565b60405180910390f35b60008054906101000a900473ffffffffffffffffffffffffffffffffffffffff1673ffffffffffffffffffffffffffffffffffffffff163373ffffffffffffffffffffffffffffffffffffffff16036101bb576040517f08c379a00000000000000000000000000000000000000000000000000000000081526004016101b2906107f1565b60405180910390fd5b600560003373ffffffffffffffffffffffffffffffffffffffff1673ffffffffffffffffffffffffffffffffffffffff16815260200190815260200160002060009054906101000a900460ff1615610248576040517f08c379a000000000000000000000000000000000000000000000000000000000815260040161023f9061085d565b60405180910390fd5b60008111801561025a57506003548111155b610299576040517f08c379a0000000000000000000000000000000000000000000000000000000008152600401610290906108c9565b60405180910390fd5b60025442106102dd576040517f08c379a00000000000000000000000000000000000000000000000000000000081526004016102d490610935565b60405180910390fd5b6001600560003373ffffffffffffffffffffffffffffffffffffffff1673ffffffffffffffffffffffffffffffffffffffff16815260200190815260200160002060006101000a81548160ff02191690831515021790555060046000828152602001908152602001600020600201600081548092919061035c90610984565b919050555050565b60035481565b60025481565b6004602052806000526040600020600091509050806000015490806001018054610399906109fb565b80601f01602080910402602001604051908101604052809291908181526020018280546103c5906109fb565b80156104125780601f106103e757610100808354040283529160200191610412565b820191906000526020600020905b8154815290600101906020018083116103f557829003601f168201915b5050505050908060020154905083565b6001805461042f906109fb565b80601f016020809104026020016040519081016040528092919081815260200182805461045b906109fb565b80156104a85780601f1061047d576101008083540402835291602001916104a8565b820191906000526020600020905b81548152906001019060200180831161048b57829003601f168201915b505050505081565b606060025442116104f6576040517f08c379a00000000000000000000000000000000000000000000000000000000081526004016104ed90610a78565b60405180910390fd5b60008080600190505b600354811161055657826004600083815260200190815260200160002060020154111561054357600460008281526020019081526020016000206002015492508091505b808061054e90610984565b9150506104ff565b50600460008281526020019081526020016000206001018054610578906109fb565b80601f01602080910402602001604051908101604052809291908181526020018280546105a4906109fb565b80156105f15780601f106105c6576101008083540402835291602001916105f1565b820191906000526020600020905b8154815290600101906020018083116105d457829003601f168201915b50505050509250505090565b600080fd5b6000819050919050565b61061581610602565b811461062057600080fd5b50565b6000813590506106328161060c565b92915050565b60006020828403121561064e5761064d6105fd565b5b600061065c84828501610623565b91505092915050565b61066e81610602565b82525050565b60006020820190506106896000830184610665565b92915050565b600081519050919050565b600082825260208201905092915050565b60005b838110156106c95780820151818401526020810190506106ae565b60008484015250505050565b6000601f19601f8301169050919050565b60006106f18261068f565b6106fb818561069a565b935061070b8185602086016106ab565b610714816106d5565b840191505092915050565b60006060820190506107346000830186610665565b818103602083015261074681856106e6565b90506107556040830184610665565b949350505050565b6000602082019050818103600083015261077781846106e6565b905092915050565b7f546865206f776e6572277320616464726573732063616e6e6f7420636173742060008201527f6120766f74652100000000000000000000000000000000000000000000000000602082015250565b60006107db60278361069a565b91506107e68261077f565b604082019050919050565b6000602082019050818103600083015261080a816107ce565b9050919050565b7f5468697320616464726573732068617320616c726561647920766f7465642100600082015250565b6000610847601f8361069a565b915061085282610811565b602082019050919050565b600060208201905081810360008301526108768161083a565b9050919050565b7f496e76616c69642063616e646964617465204944210000000000000000000000600082015250565b60006108b360158361069a565b91506108be8261087d565b602082019050919050565b600060208201905081810360008301526108e2816108a6565b9050919050565b7f566f74696e672054696d65206973204f76657221000000000000000000000000600082015250565b600061091f60148361069a565b915061092a826108e9565b602082019050919050565b6000602082019050818103600083015261094e81610912565b9050919050565b7f4e487b7100000000000000000000000000000000000000000000000000000000600052601160045260246000fd5b600061098f82610602565b91507fffffffffffffffffffffffffffffffffffffffffffffffffffffffffffffffff82036109c1576109c0610955565b5b600182019050919050565b7f4e487b7100000000000000000000000000000000000000000000000000000000600052602260045260246000fd5b60006002820490506001821680610a1357607f821691505b602082108103610a2657610a256109cc565b5b50919050565b7f54686520452d566f74696e6720686173206e6f742079657420656e6465640000600082015250565b6000610a62601e8361069a565b9150610a6d82610a2c565b602082019050919050565b60006020820190508181036000830152610a9181610a55565b905091905056fea2646970667358221220769fc90033b306feb8d553e69326bd7e697eaa8ecc170fea95e0764261ca038b64736f6c63430008110033a2646970667358221220b6a04cad30a2d5d17800c6a87ebb0b7a3a69e1404aa4548e556e1d36d8a0d10464736f6c63430008110033",
  "linkReferences": {},
  "deployedLinkReferences": {}
}